:040000000C94390023
:100004000C9400000C9400000C9400000C9400006C
:100014000C9400000C9400000C9400000C94F0006C
:100024000C9400000C9400000C94DA000C94000072
:100034000C94CB000C9400000C9400000C94000071
:100044000C9400000C9400000C9400000C9400002C
:100054001027E80364000A000100001000011000EA
:100064000100000000310400040066000000F89460
:10007400EE27ECBBF1E0FBBFEBBFE5BF8DE0A2E0F8
:10008400BB27ED938A95E9F780E094E0A0E6ED9331
:100094000197E9F7EAE6F0E085919591009761F020
:1000A400A591B59105901590BF01F00105900D92B1
:1000B4000197E1F7FB01F0CFEFE5EDBFE4E0EEBF20
:1000C400C0E6D1E00C940301EFE003C0E8E1E1BD38
:1000D400E0E0E1BD0895E0E0E0BDE9E1E9B9E0E098
:1000E400EBB9E8EDEAB9E6E8E0BDE5E0EEBD95D0B0
:1000F400E4E0E9BF7894E0E2E0B9089593D0E6B78C
:10010400E078E9F313B9E4E8E6BFE6B7E078E9F3A9
:1001140013C088D0E6B7E078E9F313B9E4E8E6BFA2
:10012400E6B7E078E9F308C01A931A2F13B9E4E8A4
:10013400E6BFE6B7E078E9F319910895E4ECE6BF89
:10014400E6B7E078E9F305C0E4E8E6BFE6B7E078AF
:10015400E9F3E3B10895E4E9E6BFE6B7E4FDFDCFD2
:100164000895A8EBCBDFA0E062D0E0936001ECDF60
:10017400E0936101F0DFA8EBC1DFA2E058D0E09387
:100184006201E2DFE0936301E6DF5D9B01C053D0CF
:100194000895EA93FA93EFB7EA93E4E0F0E04E1699
:1001A4005F060CF448D0E991EFBFF991E9911895F5
:1001B4004BD07CB0E0E3E71571F4EFEFE8BB4424E7
:1001C4005524E0E0E0936201E0936301E093610170
:1001D400E0936001C6DFE1E37E2E05C035D01DD07B
:1001E40044245524BEDFE991EFBFF991E991B99117
:1001F400A9919991899179916991F99019900990AE
:10020400189569DFEFEFEABBE7BB5EDFEFEF2AD0BB
:100214005DDFE0E027D0F9CFFFCFE7E1FEEFFDBDE2
:10022400ECBD08951A931A2FE4EAE6BF08957CDF23
:10023400A9EB6FDF83CFF20131962F013197E05A9A
:10024400FE4FE081ECB908950A921A92FA926A93E9
:100254007A938A939A93AA93BA93EA93FA93EFB709
:10026400EA930895EBBBA4E6B0E000C0109639F021
:10027400A8958AEF90E00197F1F71197C9F70895CF
:00000001FF
